:100000000C942A000C9447000C9434080C944A0871
:100010000C9447000C9447000C9447000C94470044
:100020000C9447000C9447000C9447000C94470034
:100030000C9447000C9447000C9447000C94470024
:100040000C9447000C9447000C9447000C94470014
:100050000C94470011241FBECFE5D8E0DEBFCDBF12
:1000600010E0A0E6B0E0E4E7F7E102C005900D92F1
:10007000A638B107D9F720E0A6E8B0E001C01D928C
:10008000A73FB207E1F70E9469080C94B80B0C94E3
:10009000000085BB82B38F7D82BB82B38F7B82BB26
:1000A00082B3806882BB8FE097E20197F1F700C0CE
:1000B000000082B38F7782BB089585BB82B38062D4
:1000C00082BB82B38F7B82BB82B3806882BB8FE0AE
:1000D00097E20197F1F700C0000082B38F7782BBEF
:1000E000089588E30E94490087EE93E00197F1F7B5
:1000F00000C0000081E00E94490087EE93E0019774
:10010000F1F700C0000082E00E94490087EE93E012
:100110000197F1F700C0000086E00E94490087EED9
:1001200093E00197F1F700C0000080E80E944900C9
:1001300087EE93E00197F1F700C0000008950F9358
:100140001F93CF93DF938C01C0E0D0E003C00E94E7
:100150005D002196F801EC0FFD1F80818111F7CF22
:10016000DF91CF911F910F910895E8E6F0E01082A2
:1001700081E0818382E0828383E08383E0E6F0E0B4
:1001800080E3808381E3818382E3828383E38383CB
:1001900084E3848385E3858386E3868387E387839B
:1001A0000895E8E6F0E0108281E0818382E08283B6
:1001B00083E08383E0E6F0E087EC808380E3818363
:1001C00081E3828382E3838383E3848384E385837F
:1001D00085E3868386E387830895E8E6F0E010826E
:1001E00081E0818382E0828383E08383E0E6F0E044
:1001F00086EC808387EC818380E3828381E3838341
:1002000082E3848383E3858384E3868385E3878332
:100210000895E8E6F0E0108281E0818382E0828345
:1002200083E08383E0E6F0E085EC808386EC8183E5
:1002300087EC828380E3838381E3848382E3858305
:1002400083E3868384E387830895E8E6F0E0108201
:1002500081E0818382E0828383E08383E0E6F0E0D3
:1002600084EC808385EC818386EC828387EC8383B6
:1002700080E3848381E3858382E3868383E38783CA
:100280000895E8E6F0E0108281E0818382E08283D5
:1002900083E08383E0E6F0E083EC808384EC818379
:1002A00085EC828386EC838387EC848380E385837B
:1002B00081E3868382E387830895E8E6F0E0108295
:1002C00081E0818382E0828383E08383E0E6F0E063
:1002D00082EC808383EC818384EC828385EC83834E
:1002E00086EC848387EC858380E3868381E3878340
:1002F0000895E8E6F0E0108281E0818382E0828365
:1003000083E08383E0E6F0E081EC808382EC81830C
:1003100083EC828384EC838385EC848386EC858301
:1003200087EC868380E38783089581E090E0909353
:1003300089008093880080E38BBB83E388BBE7EE72
:10034000F3E03197F1F700C0000031E33BBB92E3EB
:1003500098BBE7EEF3E03197F1F700C000003BBB3C
:1003600024E328BBE7EEF3E03197F1F700C000008B
:100370009BBB38BBE7EEF3E03197F1F700C000001C
:100380009BBB45E348BBE7EEF3E03197F1F700C0D4
:1003900000008BBB98BBE7EEF3E03197F1F700C0AC
:1003A00000008BBB28BBE7EEF3E03197F1F700C00C
:1003B00000002BBB88BBE7EEF3E03197F1F700C0FC
:1003C000000046E34BBB38BBE7EEF3E03197F1F7B3
:1003D00000C000004BBB98BBE7EEF3E03197F1F7AC
:1003E00000C000004BBB88BB87EE93E00197F1F79C
:1003F00000C0000087E38BBB28BBE7EEF3E031973A
:10040000F1F700C0000088E38BBB8DE388BBE7EE0B
:10041000F3E03197F1F700C000003AE33BBB29E37A
:1004200028BBE7EEF3E03197F1F700C000003BBBDB
:1004300038BBE7EEF3E03197F1F700C000003BBBBB
:100440004BE348BBE7EEF3E03197F1F700C0000063
:100450002BBB9CE398BBE7EEF3E03197F1F700C0CC
:1004600000009BBB28BBE7EEF3E03197F1F700C03B
:1004700000009BBB38BBE7EEF3E03197F1F700C01B
:1004800000009BBB48BBE7EEF3E03197F1F700C0FB
:1004900000009BBB98BBE7EEF3E03197F1F700C09B
:1004A00000009BBB88BBE7EEF3E03197F1F700C09B
:1004B00000008BBB28BBE7EEF3E03197F1F700C0FB
:1004C00000008BBB48BBE7EEF3E03197F1F700C0CB
:1004D00000008BBB88BBE7EEF3E03197F1F700C07B
:1004E00000009EE39BBB28BBE7EEF3E03197F1F7FA
:1004F00000C000009BBB48BBE7EEF3E03197F1F78B
:1005000000C000009BBB88BBE7EEF3E03197F1F73A
:1005100000C000009FE39BBB28BBE7EEF3E03197F0
:10052000F1F700C000009BBB88BB87EE93E001970A
:10053000F1F700C0000081E78BBB88BBE7EEF3E07A
:100540003197F1F700C000008BBB32E738BBE7EE14
:10055000F3E03197F1F700C000008BBB93E798BB45
:10056000E7EEF3E03197F1F700C000008BBB24E722
:1005700028BBE7EEF3E03197F1F700C000008BBB3A
:1005800045E748BBE7EEF3E03197F1F700C0000024
:100590003BBB88BBE7EEF3E03197F1F700C000000A
:1005A0003BBB98BBE7EEF3E03197F1F700C00000EA
:1005B0009BBB88BBE7EEF3E03197F1F700C000008A
:1005C0009BBB98BBE7EEF3E03197F1F700C000006A
:1005D0009BBB28BB87EE93E00197F1F700C00000BA
:1005E0002BBB38BBE7EEF3E03197F1F700C000001A
:1005F0002BBB48BB87EE93E00197F1F700C00000EA
:1006000080EC8BBB84EC88BBE7EEF3E03197F1F72D
:1006100000C0000091EC9BBB23EC28BBE7EEF3E0AD
:100620003197F1F700C000009BBB35EC38BBE7EE1B
:10063000F3E03197F1F700C0000092EC9BBB98BB50
:10064000E7EEF3E03197F1F700C000009BBB88BBF9
:10065000E7EEF3E03197F1F700C000009BBB96ECAA
:1006600098BBE7EEF3E03197F1F700C000002BBB39
:1006700088BBE7EEF3E03197F1F700C000002BBB39
:1006800038BBE7EEF3E03197F1F700C000008BBB19
:1006900088BBE7EEF3E03197F1F700C000009BBBA9
:1006A00088BBE7EEF3E03197F1F700C000009BBB99
:1006B00038BBE7EEF3E03197F1F700C000009BBBD9
:1006C00098BBE7EEF3E03197F1F700C0000097EC3C
:1006D0009BBB28BBE7EEF3E03197F1F700C00000C9
:1006E0009BBB88BB87EE93E00197F1F700C0000049
:1006F00088EC8BBB3AEC38BBE7EEF3E03197F1F7CF
:1007000000C000008BBB9CEC98BBE7EEF3E0319798
:10071000F1F700C0000089EC8BBB38BBE7EEF3E0DB
:100720003197F1F700C000008BBB98BBE7EEF3E018
:100730003197F1F700C000003BBB2BEC28BBE7EE84
:10074000F3E03197F1F700C000003BBB98BBE7EE48
:10075000F3E03197F1F700C000002BBB98BBE7EE48
:10076000F3E03197F1F700C000002BBB8DEC88BBA4
:10077000E7EEF3E03197F1F700C000002BBB4EEC41
:1007800048BBE7EEF3E03197F1F700C000008BBB08
:1007900038BBE7EEF3E03197F1F700C000008BBB08
:1007A00028BBE7EEF3E03197F1F700C000008BBB08
:1007B00098BBE7EEF3E03197F1F700C000008BBB88
:1007C00088BBE7EEF3E03197F1F700C000008BBB88
:1007D00048BBE7EEF3E03197F1F700C000004BBBF8
:1007E00028BBE7EEF3E03197F1F700C000008FEC93
:1007F0008BBB98BB87EE93E00197F1F700C0000038
:1008000080ED8BBB83ED88BBE7EEF3E03197F1F72A
:1008100000C0000021ED2BBB42ED48BBE7EEF3E04A
:100820003197F1F700C000002BBB88BBE7EEF3E087
:100830003197F1F700C000002BBB94ED98BBE7EEB9
:10084000F3E03197F1F700C000002BBB35ED38BB6A
:10085000E7EEF3E03197F1F700C000002BBB26ED87
:1008600028BBE7EEF3E03197F1F700C000008BBB47
:1008700048BBE7EEF3E03197F1F700C000008BBB17
:1008800088BBE7EEF3E03197F1F700C000008BBBC7
:1008900098BBE7EEF3E03197F1F700C000008BBBA7
:1008A00038BBE7EEF3E03197F1F700C000008BBBF7
:1008B00028BBE7EEF3E03197F1F700C000009BBBE7
:1008C00048BBE7EEF3E03197F1F700C000009BBBB7
:1008D00098BBE7EEF3E03197F1F700C000009BBB57
:1008E00028BB87EE93E00197F1F700C000003BBB07
:1008F00048BBE7EEF3E03197F1F700C000003BBBE7
:1009000028BB87EE93E00197F1F700C0000013CDFC
:1009100080918D0090E020916E00821B91090497D8
:1009200064F480918C0090E020916D00821B91090D
:100930001816190614F40E949501809170008F36E4
:1009400020F095E7909371000FC0883320F09DE36D
:100950009093710009C08F3220F095E3909371005D
:1009600003C095E7909371008BBB8091710088BBA9
:1009700087EE93E00197F1F700C0000080917100CD
:100980008F5F80937100809170008BBB80917100AC
:1009900088BB87EE93E00197F1F700C000008091DB
:1009A00071008F5F80937100809170008BBB80918C
:1009B000710088BB87EE93E00197F1F700C000005B
:1009C000809170008150809370008F3631F48FE3F6
:1009D000809370008CE38093710080917000843369
:1009E00031F421E030E030938B0020938A0087338C
:1009F00019F495E3909371008F3209F050C087E7A6
:100A00008093700085E780937100809186009091BB
:100A10008700893C910524F01092760010927500B1
:100A20008D3221E0920734F021E030E030937600FF
:100A300020937500813921E0920724F0109276000E
:100A400010927500853F21E0920734F021E030E0FC
:100A50003093760020937500893522E0920724F0C8
:100A600010927600109275008D3B22E0920734F0D0
:100A700021E030E03093760020937500813223E04E
:100A8000920724F0109276001092750085389340FA
:100A900034F081E090E090937600809375000895A3
:100AA0008091920090E020916E00821B9109049742
:100AB00064F480918C0090E020916C00821B91097D
:100AC0001816190614F40E94950180916F008F3654
:100AD00020F094E7909371000FC0883320F09CE3DE
:100AE0009093710009C08F3220F094E390937100CD
:100AF00003C094E7909371008BBB8091710088BB19
:100B000087EE93E00197F1F700C00000809171003B
:100B10008F5F8093710080916F008BBB809171001B
:100B200088BB87EE93E00197F1F700C00000809149
:100B300071008F5F8093710080916F008BBB8091FB
:100B4000710088BB87EE93E00197F1F700C00000C9
:100B5000809171008F5F8093710080916F008BBBDB
:100B60008091710088BB87EE93E00197F1F700C098
:100B7000000080916F00815080936F008F3629F4C0
:100B80008FE380936F008093710080916F008433B6
:100B900031F421E030E03093760020937500873304
:100BA00019F494E3909371008F3251F487E78093A6
:100BB0006F0084E78093710010928B0010928A007E
:100BC00008958091670080938C00809170008093DD
:100BD0008D0080916F0080939200809175009091BC
:100BE0007600019741F48091730090917400019711
:100BF00011F40E94880480918A0090918B000197E3
:100C000079F48091730090917400019749F4809178
:100C10008600909187008536910514F00E9450055A
:100C2000E8E6F0E080818BBBA0E6B0E014968C9102
:100C3000149788BB87EE93E00197F1F700C000009E
:100C400080818BBB17968C9188BB87EE93E00197D0
:100C5000F1F700C0000081818BBB81E090E00CC007
:100C6000FC01E05AFF4F208128BBE7EEF3E031970B
:100C7000F1F700C000000196873091058CF3809158
:100C80006A008BBB81E090E00FC08230910559F083
:100C9000FC01E05AFF4F208128BBE7EEF3E03197DB
:100CA000F1F700C0000001968730910574F3A8E6C3
:100CB000B0E013968C9113978BBBE0E6F0E0848153
:100CC00088BB87EE93E00197F1F700C00000139610
:100CD0008C918BBB878188BBE7EEF3E03197F1F70E
:100CE00000C000000895809187008F938091860056
:100CF0008F9389E790E09F938F9383E990E09F9390
:100D00008F930E94CE0888E80E94490083E990E012
:100D10000E949F000F900F900F900F900F900F90D8
:100D200008950E94E10580918600909187000196C8
:100D300090938700809386000E9473068FE39FE163
:100D40000197F1F700C000000E94D1000E94E10568
:100D50008091860090918700019690938700809300
:100D600086000E9473068FE39FE10197F1F700C0B0
:100D700000000E94ED000E94E105809186009091A4
:100D80008700019690938700809386000E947306E7
:100D90008FE39FE10197F1F700C000000E94090175
:100DA0000E94E105809186009091870001969093C2
:100DB0008700809386000E9473068FE39FE101976E
:100DC000F1F700C000000E9425010E94E10580911A
:100DD000860090918700019690938700809386000B
:100DE0000E9473068FE39FE10197F1F700C00000B6
:100DF0000E9441010E94E105809186009091870048
:100E0000019690938700809386000E9473068FE37B
:100E10009FE10197F1F700C000000E945D010E9470
:100E2000E10580918600909187000196909387005C
:100E3000809386000E9473068FE39FE10197F1F78C
:100E400000C000000E9479010E94E10580918600A7
:100E500090918700019690938700809386000E946E
:100E600073068FE39FE10197F1F700C000000E9435
:100E700079010E94E105809186009091870001969A
:100E800090938700809386000E9473068FE39FE112
:100E90000197F1F700C000000E945D010E94E1058A
:100EA00080918600909187000196909387008093AF
:100EB00086000E9473068FE39FE10197F1F700C05F
:100EC00000000E9441010E94E105809186009091FE
:100ED0008700019690938700809386000E94730696
:100EE0008FE39FE10197F1F700C000000E94250108
:100EF0000E94E10580918600909187000196909371
:100F00008700809386000E9473068FE39FE101971C
:100F1000F1F700C000000E9409010E94E1058091E4
:100F200086009091870001969093870080938600B9
:100F30000E9473068FE39FE10197F1F700C0000064
:100F40000E94ED000E94E10580918600909187004B
:100F5000019690938700809386000E9473068FE32A
:100F60009FE10197F1F700C000000E94D1000E94AC
:100F7000E10580918600909187000196909387000B
:100F8000809386000E9473068FE39FE10197F1F73B
:100F900000C000000E94B5000E94E105809186001B
:100FA00090918700019690938700809386000E941D
:100FB00073068FE39FE10197F1F700C00000809175
:100FC000880090918900019749F080918600909166
:100FD00087000196909387008093860008950F9371
:100FE0001F93CF93DF9300E010E036C08091720032
:100FF000813029F40E9491061092720008C00E946C
:10100000E1058FE39FE10197F1F700C000008091B7
:1010100086009091870001969093870080938600C8
:101020000E94730680E090E007C0E7EEF3E031979E
:10103000F1F700C000000196209177003091780010
:101040008217930794F3219602C0C0E0D0E0CA3023
:10105000D10564F20F5F1F4F08311105B4F3DF9122
:10106000CF911F910F9108951F920F920FB60F927B
:1010700011248F9380917200811104C081E08093CC
:10108000720002C0109272008F910F900FBE0F90ED
:101090001F9018951F920F920FB60F9211248F93E5
:1010A0009F938091730090917400892B39F481E0B3
:1010B00090E0909374008093730004C010927400C9
:1010C000109273009F918F910F900FBE0F901F9001
:1010D00018958FEF8ABB87BB9BB7906C9BBF95B76A
:1010E000956095BF789484BB80EE81BB0E947100AF
:1010F0008FE097E20197F1F700C000008CE00E94BA
:1011000049008FE097E20197F1F700C0000080915D
:1011100087008F93809186008F9389E790E09F935B
:101120008F9383E990E09F938F930E94CE088CE782
:1011300090E00E949F008FE493EC0197F1F700C0CC
:10114000000083E990E00E949F009FE728E381E090
:10115000915020408040E1F700C0000080EC0E94E8
:1011600049009FE728E381E0915020408040E1F76B
:1011700000C00000109272000F900F900F900F901F
:101180000F900F908091730090917400019719F463
:101190000E94EF07F7CF0E94E105F4CFAEE0B0E088
:1011A000E4EDF8E00C948F0B0D891E8986E08C83AA
:1011B0001A8309838FEF9FE79E838D83AE01475E7D
:1011C0005F4F6F89788DCE0101960E94F008EF8104
:1011D000F885E00FF11F10822E96E4E00C94AB0B23
:1011E000ABE0B0E0E6EFF8E00C94810B6C017B0122
:1011F0008A01FC0117821682838181FFCCC1CE0156
:1012000001963C01F6019381F70193FD859193FFCF
:1012100081917F01882309F4BAC1853239F493FDA5
:10122000859193FF81917F01853229F4B60190E089
:101230000E94E70AE7CF912C212C312CFFE1F31516
:10124000D8F08B3279F038F4803279F08332A1F41F
:10125000232D20611DC08D3261F0803369F4232D70
:10126000216016C0832D8260382EE32DE4603E2E6F
:101270002AC0F32DF8601DC037FC2DC020ED280FCB
:101280002A3040F08E32B9F436FC81C1232D20641F
:10129000322E19C036FE06C08AE0989E200D112419
:1012A000922E11C0EAE02E9E200D1124222EF32D45
:1012B000F0623F2E08C08C3621F4832D8068382ED2
:1012C00002C0883641F4F70193FD859193FF819127
:1012D0007F018111B3CF982F9F7D9554933028F4CF
:1012E0000C5F1F4F9FE399830DC0833631F0833726
:1012F00071F0833509F059C021C0F80180818983DC
:101300000E5F1F4F88248394912C530113C0280132
:10131000F2E04F0E511CF801A080B18036FE03C0F0
:10132000692D70E002C06FEF7FEFC5010E94DC0AFB
:101330004C018201F32DFF773F2E16C0280122E0D9
:10134000420E511CF801A080B18036FE03C0692D09
:1013500070E002C06FEF7FEFC5010E94D10A4C011F
:10136000F32DF0683F2E820133FC1BC0822D90E0EC
:1013700088169906B0F4B60180E290E00E94E70A70
:101380002A94F4CFF50137FC859137FE81915F01F6
:10139000B60190E00E94E70A21102A9421E0821A07
:1013A00091088114910471F7E8C0843611F08936F0
:1013B00041F5F80137FE07C0608171818281938118
:1013C0000C5F1F4F08C060817181072E000C880BD5
:1013D000990B0E5F1F4FF32DFF763F2E97FF09C02D
:1013E00090958095709561957F4F8F4F9F4FF068D6
:1013F0003F2E2AE030E0A3010E94230B882E86189E
:1014000045C0853731F4232D2F7EB22E2AE030E0FF
:1014100025C0932D997FB92E8F36C1F018F48835E9
:1014200079F0B5C0803719F0883721F0B0C0E92FC6
:10143000E061BE2EB4FE0DC0FB2DF460BF2E09C0CE
:1014400034FE0AC0292F2660B22E06C028E030E004
:1014500005C020E130E002C020E132E0F801B7FE33
:1014600007C060817181828193810C5F1F4F06C02C
:101470006081718180E090E00E5F1F4FA3010E94A8
:10148000230B882E8618FB2DFF773F2E36FE0DC0CE
:10149000232D2E7FA22E891458F434FE0BC032FC6B
:1014A00009C0832D8E7EA82E05C0B82CA32C03C0A6
:1014B000B82C01C0B92CA4FE0FC0FE01E80DF11D2F
:1014C0008081803321F49A2D997EA92E09C0A2FE35
:1014D00006C0B394B39404C08A2D867809F0B394FF
:1014E000A3FC11C0A0FE06C0B21488F4280C922CF4
:1014F0009B180EC0B21460F4B60180E290E00E9426
:10150000E70AB394F7CFB21418F42B1802C0982C42
:10151000212CA4FE10C0B60180E390E00E94E70AEF
:10152000A2FE17C0A1FC03C088E790E002C088E5D6
:1015300090E0B6010CC08A2D867859F0A1FE02C059
:101540008BE201C080E2A7FC8DE2B60190E00E9430
:10155000E70A891438F4B60180E390E00E94E70AB4
:101560009A94F7CF8A94F301E80DF11D8081B601BA
:1015700090E00E94E70A8110F5CF222009F442CEC4
:10158000B60180E290E00E94E70A2A94F6CFF601C5
:101590008681978102C08FEF9FEF2B96E2E10C943A
:1015A0009D0BFC010590615070400110D8F78095AB
:1015B00090958E0F9F1F0895FC016150704001901F
:1015C0000110D8F7809590958E0F9F1F08950F9367
:1015D0001F93CF93DF93FB01238121FD03C08FEF86
:1015E0009FEF2CC022FF16C0468157812481358190
:1015F0004217530744F4A081B1819D012F5F3F4FF3
:10160000318320838C93268137812F5F3F4F37832F
:10161000268314C08B01EC01FB010084F185E02DD1
:101620000995892BE1F6D80116968D919C91179713
:10163000019617969C938E931697CE01DF91CF91CA
:101640001F910F910895FA01AA27283051F12031F6
:1016500081F1E8946F936E7F6E5F7F4F8F4F9F4F46
:10166000AF4FB1E03ED0B4E03CD0670F781F891F88
:101670009A1FA11D680F791F8A1F911DA11D6A0F56
:10168000711D811D911DA11D20D009F468943F9109
:101690002AE0269F11243019305D3193DEF6CF0108
:1016A0000895462F4770405D4193B3E00FD0C9F7CE
:1016B000F6CF462F4F70405D4A3318F0495D31FD3B
:1016C0004052419302D0A9F7EACFB4E0A69597958E
:1016D000879577956795BA95C9F700976105710564
:1016E00008959B01AC010A2E0694579547953795AE
:1016F0002795BA95C9F7620F731F841F951FA01D08
:1017000008952F923F924F925F926F927F928F92A5
:101710009F92AF92BF92CF92DF92EF92FF920F9380
:101720001F93CF93DF93CDB7DEB7CA1BDB0B0FB68A
:10173000F894DEBF0FBECDBF09942A883988488847
:101740005F846E847D848C849B84AA84B984C884DD
:10175000DF80EE80FD800C811B81AA81B981CE0FD4
:10176000D11D0FB6F894DEBF0FBECDBFED010895B9
:04177000F894FFCF1B
:1017740030313233343536370001020335343077B3
:1017840077740101000100010025640053434F52A6
:0617940045203D2000008D
:00000001FF
